{
  "contractName": "SecureStablecoin",
  "abi": [
    {
      "inputs": [],
      "stateMutability": "nonpayable",
      "type": "constructor"
    },
    {
      "anonymous": false,
      "inputs": [
        {
          "indexed": true,
          "internalType": "address",
          "name": "owner",
          "type": "address"
        },
        {
          "indexed": true,
          "internalType": "address",
          "name": "spender",
          "type": "address"
        },
        {
          "indexed": false,
          "internalType": "uint256",
          "name": "value",
          "type": "uint256"
        }
      ],
      "name": "Approval",
      "type": "event"
    },
    {
      "anonymous": false,
      "inputs": [
        {
          "indexed": true,
          "internalType": "address",
          "name": "sender",
          "type": "address"
        },
        {
          "indexed": true,
          "internalType": "address",
          "name": "recipient",
          "type": "address"
        },
        {
          "indexed": false,
          "internalType": "uint256",
          "name": "amount",
          "type": "uint256"
        },
        {
          "indexed": false,
          "internalType": "bytes32",
          "name": "hashValue",
          "type": "bytes32"
        },
        {
          "indexed": false,
          "internalType": "string",
          "name": "hashType",
          "type": "string"
        }
      ],
      "name": "HashedTransfer",
      "type": "event"
    },
    {
      "anonymous": false,
      "inputs": [
        {
          "indexed": true,
          "internalType": "address",
          "name": "sender",
          "type": "address"
        },
        {
          "indexed": true,
          "internalType": "address",
          "name": "recipient",
          "type": "address"
        },
        {
          "indexed": false,
          "internalType": "uint256",
          "name": "amount",
          "type": "uint256"
        },
        {
          "indexed": false,
          "internalType": "bytes32",
          "name": "hashValue",
          "type": "bytes32"
        }
      ],
      "name": "HashedTransfer",
      "type": "event"
    },
    {
      "anonymous": false,
      "inputs": [
        {
          "indexed": true,
          "internalType": "address",
          "name": "previousOwner",
          "type": "address"
        },
        {
          "indexed": true,
          "internalType": "address",
          "name": "newOwner",
          "type": "address"
        }
      ],
      "name": "OwnershipTransferred",
      "type": "event"
    },
    {
      "anonymous": false,
      "inputs": [
        {
          "indexed": true,
          "internalType": "address",
          "name": "from",
          "type": "address"
        },
        {
          "indexed": true,
          "internalType": "address",
          "name": "to",
          "type": "address"
        },
        {
          "indexed": false,
          "internalType": "uint256",
          "name": "value",
          "type": "uint256"
        }
      ],
      "name": "Transfer",
      "type": "event"
    },
    {
      "inputs": [
        {
          "internalType": "address",
          "name": "owner",
          "type": "address"
        },
        {
          "internalType": "address",
          "name": "spender",
          "type": "address"
        }
      ],
      "name": "allowance",
      "outputs": [
        {
          "internalType": "uint256",
          "name": "",
          "type": "uint256"
        }
      ],
      "stateMutability": "view",
      "type": "function"
    },
    {
      "inputs": [
        {
          "internalType": "address",
          "name": "spender",
          "type": "address"
        },
        {
          "internalType": "uint256",
          "name": "amount",
          "type": "uint256"
        }
      ],
      "name": "approve",
      "outputs": [
        {
          "internalType": "bool",
          "name": "",
          "type": "bool"
        }
      ],
      "stateMutability": "nonpayable",
      "type": "function"
    },
    {
      "inputs": [
        {
          "internalType": "address",
          "name": "account",
          "type": "address"
        }
      ],
      "name": "balanceOf",
      "outputs": [
        {
          "internalType": "uint256",
          "name": "",
          "type": "uint256"
        }
      ],
      "stateMutability": "view",
      "type": "function"
    },
    {
      "inputs": [],
      "name": "decimals",
      "outputs": [
        {
          "internalType": "uint8",
          "name": "",
          "type": "uint8"
        }
      ],
      "stateMutability": "view",
      "type": "function"
    },
    {
      "inputs": [
        {
          "internalType": "address",
          "name": "spender",
          "type": "address"
        },
        {
          "internalType": "uint256",
          "name": "subtractedValue",
          "type": "uint256"
        }
      ],
      "name": "decreaseAllowance",
      "outputs": [
        {
          "internalType": "bool",
          "name": "",
          "type": "bool"
        }
      ],
      "stateMutability": "nonpayable",
      "type": "function"
    },
    {
      "inputs": [
        {
          "internalType": "address",
          "name": "spender",
          "type": "address"
        },
        {
          "internalType": "uint256",
          "name": "addedValue",
          "type": "uint256"
        }
      ],
      "name": "increaseAllowance",
      "outputs": [
        {
          "internalType": "bool",
          "name": "",
          "type": "bool"
        }
      ],
      "stateMutability": "nonpayable",
      "type": "function"
    },
    {
      "inputs": [],
      "name": "name",
      "outputs": [
        {
          "internalType": "string",
          "name": "",
          "type": "string"
        }
      ],
      "stateMutability": "view",
      "type": "function"
    },
    {
      "inputs": [],
      "name": "owner",
      "outputs": [
        {
          "internalType": "address",
          "name": "",
          "type": "address"
        }
      ],
      "stateMutability": "view",
      "type": "function"
    },
    {
      "inputs": [],
      "name": "renounceOwnership",
      "outputs": [],
      "stateMutability": "nonpayable",
      "type": "function"
    },
    {
      "inputs": [],
      "name": "symbol",
      "outputs": [
        {
          "internalType": "string",
          "name": "",
          "type": "string"
        }
      ],
      "stateMutability": "view",
      "type": "function"
    },
    {
      "inputs": [],
      "name": "totalSupply",
      "outputs": [
        {
          "internalType": "uint256",
          "name": "",
          "type": "uint256"
        }
      ],
      "stateMutability": "view",
      "type": "function"
    },
    {
      "inputs": [
        {
          "internalType": "address",
          "name": "to",
          "type": "address"
        },
        {
          "internalType": "uint256",
          "name": "amount",
          "type": "uint256"
        }
      ],
      "name": "transfer",
      "outputs": [
        {
          "internalType": "bool",
          "name": "",
          "type": "bool"
        }
      ],
      "stateMutability": "nonpayable",
      "type": "function"
    },
    {
      "inputs": [
        {
          "internalType": "address",
          "name": "from",
          "type": "address"
        },
        {
          "internalType": "address",
          "name": "to",
          "type": "address"
        },
        {
          "internalType": "uint256",
          "name": "amount",
          "type": "uint256"
        }
      ],
      "name": "transferFrom",
      "outputs": [
        {
          "internalType": "bool",
          "name": "",
          "type": "bool"
        }
      ],
      "stateMutability": "nonpayable",
      "type": "function"
    },
    {
      "inputs": [
        {
          "internalType": "address",
          "name": "newOwner",
          "type": "address"
        }
      ],
      "name": "transferOwnership",
      "outputs": [],
      "stateMutability": "nonpayable",
      "type": "function"
    },
    {
      "inputs": [
        {
          "internalType": "address",
          "name": "to",
          "type": "address"
        },
        {
          "internalType": "uint256",
          "name": "amount",
          "type": "uint256"
        }
      ],
      "name": "mint",
      "outputs": [],
      "stateMutability": "nonpayable",
      "type": "function"
    },
    {
      "inputs": [
        {
          "internalType": "string",
          "name": "data",
          "type": "string"
        }
      ],
      "name": "hashSHA512",
      "outputs": [
        {
          "internalType": "bytes32",
          "name": "",
          "type": "bytes32"
        }
      ],
      "stateMutability": "pure",
      "type": "function"
    },
    {
      "inputs": [
        {
          "internalType": "string",
          "name": "data",
          "type": "string"
        }
      ],
      "name": "hashBLAKE3",
      "outputs": [
        {
          "internalType": "bytes32",
          "name": "",
          "type": "bytes32"
        }
      ],
      "stateMutability": "pure",
      "type": "function"
    },
    {
      "inputs": [
        {
          "internalType": "address",
          "name": "recipient",
          "type": "address"
        },
        {
          "internalType": "uint256",
          "name": "amount",
          "type": "uint256"
        },
        {
          "internalType": "bytes32",
          "name": "hash",
          "type": "bytes32"
        }
      ],
      "name": "transferWithSHA512Hash",
      "outputs": [],
      "stateMutability": "nonpayable",
      "type": "function"
    },
    {
      "inputs": [
        {
          "internalType": "address",
          "name": "recipient",
          "type": "address"
        },
        {
          "internalType": "uint256",
          "name": "amount",
          "type": "uint256"
        },
        {
          "internalType": "bytes32",
          "name": "hash",
          "type": "bytes32"
        }
      ],
      "name": "transferWithBLAKE3Hash",
      "outputs": [],
      "stateMutability": "nonpayable",
      "type": "function"
    },
    {
      "inputs": [
        {
          "internalType": "address",
          "name": "account",
          "type": "address"
        }
      ],
      "name": "getSHA512Hash",
      "outputs": [
        {
          "internalType": "bytes32",
          "name": "",
          "type": "bytes32"
        }
      ],
      "stateMutability": "view",
      "type": "function"
    },
    {
      "inputs": [
        {
          "internalType": "address",
          "name": "account",
          "type": "address"
        }
      ],
      "name": "getBLAKE3Hash",
      "outputs": [
        {
          "internalType": "bytes32",
          "name": "",
          "type": "bytes32"
        }
      ],
      "stateMutability": "view",
      "type": "function"
    }
  ],
  "bytecode": "0x60806040523480156200001157600080fd5b506040518060400160405280601181526020017f53656375726520537461626c65636f696e0000000000000000000000000000008152506040518060400160405280600481526020017f535553440000000000000000000000000000000000000000000000000000000081525081600390816200008f919062000733565b508060049081620000a1919062000733565b505050620000c4620000b86200011a60201b60201c565b6200012260201b60201c565b620000d533620001e860201b60201c565b6200011433620000ea6200027e60201b60201c565b600a620000f89190620009aa565b620f4240620001089190620009fb565b6200028760201b60201c565b62000c3c565b600033905090565b6000600560009054906101000a900473ffffffffffffffffffffffffffffffffffffffff16905081600560006101000a81548173ffffffffffffffffffffffffffffffffffffffff021916908373ffffffffffffffffffffffffffffffffffffffff1602179055508173ffffffffffffffffffffffffffffffffffffffff168173ffffffffffffffffffffffffffffffffffffffff167f8be0079c531659141344cd1fd0a4f28419497f9722a3daafe3b4186f6b6457e060405160405180910390a35050565b620001f8620003f460201b60201c565b600073ffffffffffffffffffffffffffffffffffffffff168173ffffffffffffffffffffffffffffffffffffffff16036200026a576040517f08c379a0000000000000000000000000000000000000000000000000000000008152600401620002619062000acd565b60405180910390fd5b6200027b816200012260201b60201c565b50565b60006012905090565b600073ffffffffffffffffffffffffffffffffffffffff168273ffffffffffffffffffffffffffffffffffffffff1603620002f9576040517f08c379a0000000000000000000000000000000000000000000000000000000008152600401620002f09062000b3f565b60405180910390fd5b6200030d600083836200048560201b60201c565b806002600082825462000321919062000b61565b92505081905550806000808473ffffffffffffffffffffffffffffffffffffffff1673ffffffffffffffffffffffffffffffffffffffff168152602001908152602001600020600082825401925050819055508173ffffffffffffffffffffffffffffffffffffffff16600073ffffffffffffffffffffffffffffffffffffffff167fddf252ad1be2c89b69c2b068fc378daa952ba7f163c4a11628f55a4df523b3ef83604051620003d4919062000bad565b60405180910390a3620003f0600083836200048a60201b60201c565b5050565b620004046200011a60201b60201c565b73ffffffffffffffffffffffffffffffffffffffff166200042a6200048f60201b60201c565b73ffffffffffffffffffffffffffffffffffffffff161462000483576040517f08c379a00000000000000000000000000000000000000000000000000000000081526004016200047a9062000c1a565b60405180910390fd5b565b505050565b505050565b6000600560009054906101000a900473ffffffffffffffffffffffffffffffffffffffff16905090565b600081519050919050565b7f4e487b7100000000000000000000000000000000000000000000000000000000600052604160045260246000fd5b7f4e487b7100000000000000000000000000000000000000000000000000000000600052602260045260246000fd5b600060028204905060018216806200053b57607f821691505b602082108103620005515762000550620004f3565b5b50919050565b60008190508160005260206000209050919050565b60006020601f8301049050919050565b600082821b905092915050565b600060088302620005bb7fffffffffffffffffffffffffffffffffffffffffffffffffffffffffffffffff826200057c565b620005c786836200057c565b95508019841693508086168417925050509392505050565b6000819050919050565b6000819050919050565b6000620006146200060e6200060884620005df565b620005e9565b620005df565b9050919050565b6000819050919050565b6200063083620005f3565b620006486200063f826200061b565b84845462000589565b825550505050565b600090565b6200065f62000650565b6200066c81848462000625565b505050565b5b8181101562000694576200068860008262000655565b60018101905062000672565b5050565b601f821115620006e357620006ad8162000557565b620006b8846200056c565b81016020851015620006c8578190505b620006e0620006d7856200056c565b83018262000671565b50505b505050565b600082821c905092915050565b60006200070860001984600802620006e8565b1980831691505092915050565b6000620007238383620006f5565b9150826002028217905092915050565b6200073e82620004b9565b67ffffffffffffffff8111156200075a5762000759620004c4565b5b62000766825462000522565b6200077382828562000698565b600060209050601f831160018114620007ab576000841562000796578287015190505b620007a2858262000715565b86555062000812565b601f198416620007bb8662000557565b60005b82811015620007e557848901518255600182019150602085019450602081019050620007be565b8683101562000805578489015162000801601f891682620006f5565b8355505b6001600288020188555050505b505050505050565b7f4e487b7100000000000000000000000000000000000000000000000000000000600052601160045260246000fd5b60008160011c9050919050565b6000808291508390505b6001851115620008a85780860481111562000880576200087f6200081a565b5b6001851615620008905780820291505b8081029050620008a08562000849565b945062000860565b94509492505050565b600082620008c3576001905062000996565b81620008d3576000905062000996565b8160018114620008ec5760028114620008f7576200092d565b600191505062000996565b60ff8411156200090c576200090b6200081a565b5b8360020a9150848211156200092657620009256200081a565b5b5062000996565b5060208310610133831016604e8410600b8410161715620009675782820a9050838111156200096157620009606200081a565b5b62000996565b62000976848484600162000856565b9250905081840481111562000990576200098f6200081a565b5b81810290505b9392505050565b600060ff82169050919050565b6000620009b782620005df565b9150620009c4836200099d565b9250620009f37fffffffffffffffffffffffffffffffffffffffffffffffffffffffffffffffff8484620008b1565b905092915050565b600062000a0882620005df565b915062000a1583620005df565b925082820262000a2581620005df565b9150828204841483151762000a3f5762000a3e6200081a565b5b5092915050565b600082825260208201905092915050565b7f4f776e61626c653a206e6577206f776e657220697320746865207a65726f206160008201527f6464726573730000000000000000000000000000000000000000000000000000602082015250565b600062000ab560268362000a46565b915062000ac28262000a57565b604082019050919050565b6000602082019050818103600083015262000ae88162000aa6565b9050919050565b7f45524332303a206d696e7420746f20746865207a65726f206164647265737300600082015250565b600062000b27601f8362000a46565b915062000b348262000aef565b602082019050919050565b6000602082019050818103600083015262000b5a8162000b18565b9050919050565b600062000b6e82620005df565b915062000b7b83620005df565b925082820190508082111562000b965762000b956200081a565b5b92915050565b62000ba781620005df565b82525050565b600060208201905062000bc4600083018462000b9c565b92915050565b7f4f776e61626c653a2063616c6c6572206973206e6f7420746865206f776e6572600082015250565b600062000c0260208362000a46565b915062000c0f8262000bca565b602082019050919050565b6000602082019050818103600083015262000c358162000bf3565b9050919050565b611fb98062000c4c6000396000f3fe608060405234801561001057600080fd5b50600436106101375760003560e01c806370a08231116100b8578063a265db331161007c578063a265db3314610364578063a457c2d714610380578063a9059cbb146103b0578063dd62ed3e146103e0578063e076e5b314610410578063f2fde38b1461044057610137565b806370a08231146102be578063715018a6146102ee5780637f2f93c1146102f85780638da5cb5b1461032857806395d89b411461034657610137565b80633498fc77116100ff5780633498fc77146101f657806339509351146102265780633ce9ce521461025657806340c10f191461027257806369a3227c1461028e57610137565b806306fdde031461013c578063095ea7b31461015a57806318160ddd1461018a57806323b872dd146101a8578063313ce567146101d8575b600080fd5b61014461045c565b60405161015191906112c3565b60405180910390f35b610174600480360381019061016f919061138d565b6104ee565b60405161018191906113e8565b60405180910390f35b610192610511565b60405161019f9190611412565b60405180910390f35b6101c260048036038101906101bd919061142d565b61051b565b6040516101cf91906113e8565b60405180910390f35b6101e061054a565b6040516101ed919061149c565b60405180910390f35b610210600480360381019061020b91906114b7565b610553565b60405161021d91906114fd565b60405180910390f35b610240600480360381019061023b919061138d565b61059c565b60405161024d91906113e8565b60405180910390f35b610270600480360381019061026b9190611544565b6105d3565b005b61028c6004803603810190610287919061138d565b61068e565b005b6102a860048036038101906102a391906114b7565b61069c565b6040516102b591906114fd565b60405180910390f35b6102d860048036038101906102d391906114b7565b6106e5565b6040516102e59190611412565b60405180910390f35b6102f661072d565b005b610312600480360381019061030d91906116cc565b610741565b60405161031f91906114fd565b60405180910390f35b610330610771565b60405161033d9190611724565b60405180910390f35b61034e61079b565b60405161035b91906112c3565b60405180910390f35b61037e60048036038101906103799190611544565b61082d565b005b61039a6004803603810190610395919061138d565b6108e8565b6040516103a791906113e8565b60405180910390f35b6103ca60048036038101906103c5919061138d565b61095f565b6040516103d791906113e8565b60405180910390f35b6103fa60048036038101906103f5919061173f565b610982565b6040516104079190611412565b60405180910390f35b61042a600480360381019061042591906116cc565b610a09565b60405161043791906114fd565b60405180910390f35b61045a600480360381019061045591906114b7565b610a39565b005b60606003805461046b906117ae565b80601f0160208091040260200160405190810160405280929190818152602001828054610497906117ae565b80156104e45780601f106104b9576101008083540402835291602001916104e4565b820191906000526020600020905b8154815290600101906020018083116104c757829003601f168201915b5050505050905090565b6000806104f9610abc565b9050610506818585610ac4565b600191505092915050565b6000600254905090565b600080610526610abc565b9050610533858285610c8d565b61053e858585610d19565b60019150509392505050565b60006012905090565b6000600660008373ffffffffffffffffffffffffffffffffffffffff1673ffffffffffffffffffffffffffffffffffffffff168152602001908152602001600020549050919050565b6000806105a7610abc565b90506105c88185856105b98589610982565b6105c3919061180e565b610ac4565b600191505092915050565b6105de338484610d19565b80600760008573ffffffffffffffffffffffffffffffffffffffff1673ffffffffffffffffffffffffffffffffffffffff168152602001908152602001600020819055508273ffffffffffffffffffffffffffffffffffffffff163373ffffffffffffffffffffffffffffffffffffffff167f4525ea652e5262c5af1f366ce8d15f9fe11365861653a046639bdc95027ad9c1848460405161068192919061188e565b60405180910390a3505050565b6106988282610f8f565b5050565b6000600760008373ffffffffffffffffffffffffffffffffffffffff1673ffffffffffffffffffffffffffffffffffffffff168152602001908152602001600020549050919050565b60008060008373ffffffffffffffffffffffffffffffffffffffff1673ffffffffffffffffffffffffffffffffffffffff168152602001908152602001600020549050919050565b6107356110e5565b61073f6000611163565b565b6000816040516020016107549190611929565b604051602081830303815290604052805190602001209050919050565b6000600560009054906101000a900473ffffffffffffffffffffffffffffffffffffffff16905090565b6060600480546107aa906117ae565b80601f01602080910402602001604051908101604052809291908181526020018280546107d6906117ae565b80156108235780601f106107f857610100808354040283529160200191610823565b820191906000526020600020905b81548152906001019060200180831161080657829003601f168201915b5050505050905090565b610838338484610d19565b80600660008573ffffffffffffffffffffffffffffffffffffffff1673ffffffffffffffffffffffffffffffffffffffff168152602001908152602001600020819055508273ffffffffffffffffffffffffffffffffffffffff163373ffffffffffffffffffffffffffffffffffffffff167f4525ea652e5262c5af1f366ce8d15f9fe11365861653a046639bdc95027ad9c184846040516108db929190611997565b60405180910390a3505050565b6000806108f3610abc565b905060006109018286610982565b905083811015610946576040517f08c379a000000000000000000000000000000000000000000000000000000000815260040161093d90611a45565b60405180910390fd5b6109538286868403610ac4565b60019250505092915050565b60008061096a610abc565b9050610977818585610d19565b600191505092915050565b6000600160008473ffffffffffffffffffffffffffffffffffffffff1673ffffffffffffffffffffffffffffffffffffffff16815260200190815260200160002060008373ffffffffffffffffffffffffffffffffffffffff1673ffffffffffffffffffffffffffffffffffffffff16815260200190815260200160002054905092915050565b600081604051602001610a1c9190611ab1565b604051602081830303815290604052805190602001209050919050565b610a416110e5565b600073ffffffffffffffffffffffffffffffffffffffff168173ffffffffffffffffffffffffffffffffffffffff1603610ab0576040517f08c379a0000000000000000000000000000000000000000000000000000000008152600401610aa790611b45565b60405180910390fd5b610ab981611163565b50565b600033905090565b600073ffffffffffffffffffffffffffffffffffffffff168373ffffffffffffffffffffffffffffffffffffffff1603610b33576040517f08c379a0000000000000000000000000000000000000000000000000000000008152600401610b2a90611bd7565b60405180910390fd5b600073ffffffffffffffffffffffffffffffffffffffff168273ffffffffffffffffffffffffffffffffffffffff1603610ba2576040517f08c379a0000000000000000000000000000000000000000000000000000000008152600401610b9990611c69565b60405180910390fd5b80600160008573ffffffffffffffffffffffffffffffffffffffff1673ffffffffffffffffffffffffffffffffffffffff16815260200190815260200160002060008473ffffffffffffffffffffffffffffffffffffffff1673ffffffffffffffffffffffffffffffffffffffff168152602001908152602001600020819055508173ffffffffffffffffffffffffffffffffffffffff168373ffffffffffffffffffffffffffffffffffffffff167f8c5be1e5ebec7d5bd14f71427d1e84f3dd0314c0f7b2291e5b200ac8c7c3b92583604051610c809190611412565b60405180910390a3505050565b6000610c998484610982565b90507fffffffffffffffffffffffffffffffffffffffffffffffffffffffffffffffff8114610d135781811015610d05576040517f08c379a0000000000000000000000000000000000000000000000000000000008152600401610cfc90611cd5565b60405180910390fd5b610d128484848403610ac4565b5b50505050565b600073ffffffffffffffffffffffffffffffffffffffff168373ffffffffffffffffffffffffffffffffffffffff1603610d88576040517f08c379a0000000000000000000000000000000000000000000000000000000008152600401610d7f90611d67565b60405180910390fd5b600073ffffffffffffffffffffffffffffffffffffffff168273ffffffffffffffffffffffffffffffffffffffff1603610df7576040517f08c379a0000000000000000000000000000000000000000000000000000000008152600401610dee90611df9565b60405180910390fd5b610e02838383611229565b60008060008573ffffffffffffffffffffffffffffffffffffffff1673ffffffffffffffffffffffffffffffffffffffff16815260200190815260200160002054905081811015610e88576040517f08c379a0000000000000000000000000000000000000000000000000000000008152600401610e7f90611e8b565b60405180910390fd5b8181036000808673ffffffffffffffffffffffffffffffffffffffff1673ffffffffffffffffffffffffffffffffffffffff16815260200190815260200160002081905550816000808573ffffffffffffffffffffffffffffffffffffffff1673ffffffffffffffffffffffffffffffffffffffff168152602001908152602001600020600082825401925050819055508273ffffffffffffffffffffffffffffffffffffffff168473ffffffffffffffffffffffffffffffffffffffff167fddf252ad1be2c89b69c2b068fc378daa952ba7f163c4a11628f55a4df523b3ef84604051610f769190611412565b60405180910390a3610f8984848461122e565b50505050565b600073ffffffffffffffffffffffffffffffffffffffff168273ffffffffffffffffffffffffffffffffffffffff1603610ffe576040517f08c379a0000000000000000000000000000000000000000000000000000000008152600401610ff590611ef7565b60405180910390fd5b61100a60008383611229565b806002600082825461101c919061180e565b92505081905550806000808473ffffffffffffffffffffffffffffffffffffffff1673ffffffffffffffffffffffffffffffffffffffff168152602001908152602001600020600082825401925050819055508173ffffffffffffffffffffffffffffffffffffffff16600073ffffffffffffffffffffffffffffffffffffffff167fddf252ad1be2c89b69c2b068fc378daa952ba7f163c4a11628f55a4df523b3ef836040516110cd9190611412565b60405180910390a36110e16000838361122e565b5050565b6110ed610abc565b73ffffffffffffffffffffffffffffffffffffffff1661110b610771565b73ffffffffffffffffffffffffffffffffffffffff1614611161576040517f08c379a000000000000000000000000000000000000000000000000000000000815260040161115890611f63565b60405180910390fd5b565b6000600560009054906101000a900473ffffffffffffffffffffffffffffffffffffffff16905081600560006101000a81548173ffffffffffffffffffffffffffffffffffffffff021916908373ffffffffffffffffffffffffffffffffffffffff1602179055508173ffffffffffffffffffffffffffffffffffffffff168173ffffffffffffffffffffffffffffffffffffffff167f8be0079c531659141344cd1fd0a4f28419497f9722a3daafe3b4186f6b6457e060405160405180910390a35050565b505050565b505050565b600081519050919050565b600082825260208201905092915050565b60005b8381101561126d578082015181840152602081019050611252565b60008484015250505050565b6000601f19601f8301169050919050565b600061129582611233565b61129f818561123e565b93506112af81856020860161124f565b6112b881611279565b840191505092915050565b600060208201905081810360008301526112dd818461128a565b905092915050565b6000604051905090565b600080fd5b600080fd5b600073ffffffffffffffffffffffffffffffffffffffff82169050919050565b6000611324826112f9565b9050919050565b61133481611319565b811461133f57600080fd5b50565b6000813590506113518161132b565b92915050565b6000819050919050565b61136a81611357565b811461137557600080fd5b50565b60008135905061138781611361565b92915050565b600080604083850312156113a4576113a36112ef565b5b60006113b285828601611342565b92505060206113c385828601611378565b9150509250929050565b60008115159050919050565b6113e2816113cd565b82525050565b60006020820190506113fd60008301846113d9565b92915050565b61140c81611357565b82525050565b60006020820190506114276000830184611403565b92915050565b600080600060608486031215611446576114456112ef565b5b600061145486828701611342565b935050602061146586828701611342565b925050604061147686828701611378565b9150509250925092565b600060ff82169050919050565b61149681611480565b82525050565b60006020820190506114b1600083018461148d565b92915050565b6000602082840312156114cd576114cc6112ef565b5b60006114db84828501611342565b91505092915050565b6000819050919050565b6114f7816114e4565b82525050565b600060208201905061151260008301846114ee565b92915050565b611521816114e4565b811461152c57600080fd5b50565b60008135905061153e81611518565b92915050565b60008060006060848603121561155d5761155c6112ef565b5b600061156b86828701611342565b935050602061157c86828701611378565b925050604061158d8682870161152f565b9150509250925092565b600080fd5b600080fd5b7f4e487b7100000000000000000000000000000000000000000000000000000000600052604160045260246000fd5b6115d982611279565b810181811067ffffffffffffffff821117156115f8576115f76115a1565b5b80604052505050565b600061160b6112e5565b905061161782826115d0565b919050565b600067ffffffffffffffff821115611637576116366115a1565b5b61164082611279565b9050602081019050919050565b82818337600083830152505050565b600061166f61166a8461161c565b611601565b90508281526020810184848401111561168b5761168a61159c565b5b61169684828561164d565b509392505050565b600082601f8301126116b3576116b2611597565b5b81356116c384826020860161165c565b91505092915050565b6000602082840312156116e2576116e16112ef565b5b600082013567ffffffffffffffff811115611700576116ff6112f4565b5b61170c8482850161169e565b91505092915050565b61171e81611319565b82525050565b60006020820190506117396000830184611715565b92915050565b60008060408385031215611756576117556112ef565b5b600061176485828601611342565b925050602061177585828601611342565b9150509250929050565b7f4e487b7100000000000000000000000000000000000000000000000000000000600052602260045260246000fd5b600060028204905060018216806117c657607f821691505b6020821081036117d9576117d861177f565b5b50919050565b7f4e487b7100000000000000000000000000000000000000000000000000000000600052601160045260246000fd5b600061181982611357565b915061182483611357565b925082820190508082111561183c5761183b6117df565b5b92915050565b7f424c414b45330000000000000000000000000000000000000000000000000000600082015250565b600061187860068361123e565b915061188382611842565b602082019050919050565b60006060820190506118a36000830185611403565b6118b060208301846114ee565b81810360408301526118c18161186b565b90509392505050565b600081905092915050565b60006118e26006836118ca565b91506118ed82611842565b600682019050919050565b600061190382611233565b61190d81856118ca565b935061191d81856020860161124f565b80840191505092915050565b6000611934826118d5565b915061194082846118f8565b915081905092915050565b7f5348412d35313200000000000000000000000000000000000000000000000000600082015250565b600061198160078361123e565b915061198c8261194b565b602082019050919050565b60006060820190506119ac6000830185611403565b6119b960208301846114ee565b81810360408301526119ca81611974565b90509392505050565b7f45524332303a2064656372656173656420616c6c6f77616e63652062656c6f7760008201527f207a65726f000000000000000000000000000000000000000000000000000000602082015250565b6000611a2f60258361123e565b9150611a3a826119d3565b604082019050919050565b60006020820190508181036000830152611a5e81611a22565b9050919050565b7f5348413531320000000000000000000000000000000000000000000000000000600082015250565b6000611a9b6006836118ca565b9150611aa682611a65565b600682019050919050565b6000611abc82611a8e565b9150611ac882846118f8565b915081905092915050565b7f4f776e61626c653a206e6577206f776e657220697320746865207a65726f206160008201527f6464726573730000000000000000000000000000000000000000000000000000602082015250565b6000611b2f60268361123e565b9150611b3a82611ad3565b604082019050919050565b60006020820190508181036000830152611b5e81611b22565b9050919050565b7f45524332303a20617070726f76652066726f6d20746865207a65726f2061646460008201527f7265737300000000000000000000000000000000000000000000000000000000602082015250565b6000611bc160248361123e565b9150611bcc82611b65565b604082019050919050565b60006020820190508181036000830152611bf081611bb4565b9050919050565b7f45524332303a20617070726f766520746f20746865207a65726f20616464726560008201527f7373000000000000000000000000000000000000000000000000000000000000602082015250565b6000611c5360228361123e565b9150611c5e82611bf7565b604082019050919050565b60006020820190508181036000830152611c8281611c46565b9050919050565b7f45524332303a20696e73756666696369656e7420616c6c6f77616e6365000000600082015250565b6000611cbf601d8361123e565b9150611cca82611c89565b602082019050919050565b60006020820190508181036000830152611cee81611cb2565b9050919050565b7f45524332303a207472616e736665722066726f6d20746865207a65726f20616460008201527f6472657373000000000000000000000000000000000000000000000000000000602082015250565b6000611d5160258361123e565b9150611d5c82611cf5565b604082019050919050565b60006020820190508181036000830152611d8081611d44565b9050919050565b7f45524332303a207472616e7366657220746f20746865207a65726f206164647260008201527f6573730000000000000000000000000000000000000000000000000000000000602082015250565b6000611de360238361123e565b9150611dee82611d87565b604082019050919050565b60006020820190508181036000830152611e1281611dd6565b9050919050565b7f45524332303a207472616e7366657220616d6f756e742065786365656473206260008201527f616c616e63650000000000000000000000000000000000000000000000000000602082015250565b6000611e7560268361123e565b9150611e8082611e19565b604082019050919050565b60006020820190508181036000830152611ea481611e68565b9050919050565b7f45524332303a206d696e7420746f20746865207a65726f206164647265737300600082015250565b6000611ee1601f8361123e565b9150611eec82611eab565b602082019050919050565b60006020820190508181036000830152611f1081611ed4565b9050919050565b7f4f776e61626c653a2063616c6c6572206973206e6f7420746865206f776e6572600082015250565b6000611f4d60208361123e565b9150611f5882611f17565b602082019050919050565b60006020820190508181036000830152611f7c81611f40565b905091905056fea264697066735822122094194587d9159684119cf718f4c3c5a2925192dce34d7ac72d8fd85834473c9664736f6c63430008130033",
  "immutableReferences": {},
  "source": "// SPDX-License-Identifier: MIT\r\npragma solidity ^0.8.19;\r\n\r\nimport \"@openzeppelin/contracts/token/ERC20/ERC20.sol\";\r\nimport \"@openzeppelin/contracts/access/Ownable.sol\";\r\n\r\n/**\r\n * @title SecureStablecoin\r\n * @dev A secure stablecoin contract with hashed balances and transfer functionality.\r\n * This contract uses SHA-512 and BLAKE3 hashing algorithms for secure balance management.\r\n */\r\n// Note:  we are using keccak256 as a placeholder for SHA-512 and BLAKE3 hashing algorithms.\r\n// In a real-world scenario, you would need to implement or import the actual hashing algorithms.\r\n// The hashing functions are not secure and should not be used for real cryptographic purposes.\r\n// This is just a simulation for educational purposes.\r\n// In a production environment, you would use a library that implements SHA-512 and BLAKE3 securely.\r\n\r\n\r\ncontract SecureStablecoin is ERC20, Ownable {\r\n    \r\n    \r\n    mapping(address => bytes32) private hashedBalanceSHA512;\r\n    mapping(address => bytes32) private hashedBalanceBLAKE3;\r\n\r\n    event HashedTransfer(\r\n        address indexed sender,\r\n        address indexed recipient,\r\n        uint256 amount,\r\n        bytes32 hashValue,\r\n        string hashType // \"SHA-512\" atau \"BLAKE3\"\r\n    );\r\n    // Event to log hashed transfers\r\n    // This event is emitted when a transfer is made with a hashed balance.\r\n    // It includes the sender's address, recipient's address, amount transferred, and the hash value.\r\n    // This allows for tracking and verifying transfers in a secure manner.\r\n    // The event is indexed for efficient searching and filtering in the blockchain.\r\n    // The indexed parameters are sender, recipient, and hashValue.\r\n    // The amount is not indexed to save space, as it can be derived from the transfer function.\r\n    event HashedTransfer(address indexed sender, address indexed recipient, uint256 amount, bytes32 hashValue);\r\n     constructor() ERC20(\"Secure Stablecoin\", \"SUSD\") {\r\n        transferOwnership(msg.sender); // Versi OpenZeppelin 4.x pakai ini\r\n        _mint(msg.sender, 1000000 * 10**decimals());\r\n        \r\n    }\r\n\r\n    \r\n    function mint(address to, uint256 amount) public {\r\n        _mint(to, amount);\r\n    }\r\n    // Simulasi hashing SHA-512\r\n    function hashSHA512(string memory data) public pure returns (bytes32) {\r\n        return keccak256(abi.encodePacked(\"SHA512\", data));\r\n    }\r\n\r\n    // Simulasi hashing BLAKE3\r\n    function hashBLAKE3(string memory data) public pure returns (bytes32) {\r\n        return keccak256(abi.encodePacked(\"BLAKE3\", data));\r\n    }\r\n\r\n    // Transfer dan simpan hash SHA-512\r\n    function transferWithSHA512Hash(address recipient, uint256 amount, bytes32 hash) public {\r\n        _transfer(msg.sender, recipient, amount);\r\n        hashedBalanceSHA512[recipient] = hash;\r\n        emit HashedTransfer(msg.sender, recipient, amount, hash, \"SHA-512\");\r\n    }\r\n\r\n    // Transfer dan simpan hash BLAKE3\r\n    function transferWithBLAKE3Hash(address recipient, uint256 amount, bytes32 hash) public {\r\n        _transfer(msg.sender, recipient, amount);\r\n        hashedBalanceBLAKE3[recipient] = hash;\r\n        emit HashedTransfer(msg.sender, recipient, amount, hash, \"BLAKE3\");\r\n    }\r\n\r\n    // Ambil hash masing-masing\r\n    function getSHA512Hash(address account) public view returns (bytes32) {\r\n        return hashedBalanceSHA512[account];\r\n    }\r\n\r\n    function getBLAKE3Hash(address account) public view returns (bytes32) {\r\n        return hashedBalanceBLAKE3[account];\r\n    }\r\n\r\n    // Konversi uint ke string (kalau masih dibutuhkan)\r\n    function toString(uint256 value) internal pure returns (string memory) {\r\n        if (value == 0) return \"0\";\r\n        uint256 temp = value;\r\n        uint256 digits;\r\n        while (temp != 0) {\r\n            digits++;\r\n            temp /= 10;\r\n        }\r\n        bytes memory buffer = new bytes(digits);\r\n        while (value != 0) {\r\n            digits -= 1;\r\n            buffer[digits] = bytes1(uint8(48 + uint256(value % 10)));\r\n            value /= 10;\r\n        }\r\n        return string(buffer);\r\n    }\r\n}",
  "sourcePath": "C:\\Users\\Visa Ramadhan\\Documents\\task\\code\\blockchain\\stable-coin\\truffle\\contracts\\SecureStablecoin.sol",
  "compiler": {
    "name": "solc",
    "version": "0.8.19+commit.7dd6d404.Emscripten.clang"
  },
  "schemaVersion": "3.4.16",
  "updatedAt": "2025-05-04T03:34:13.927Z",
  "devdoc": {
    "details": "A secure stablecoin contract with hashed balances and transfer functionality. This contract uses SHA-512 and BLAKE3 hashing algorithms for secure balance management.",
    "events": {
      "Approval(address,address,uint256)": {
        "details": "Emitted when the allowance of a `spender` for an `owner` is set by a call to {approve}. `value` is the new allowance."
      },
      "Transfer(address,address,uint256)": {
        "details": "Emitted when `value` tokens are moved from one account (`from`) to another (`to`). Note that `value` may be zero."
      }
    },
    "kind": "dev",
    "methods": {
      "allowance(address,address)": {
        "details": "See {IERC20-allowance}."
      },
      "approve(address,uint256)": {
        "details": "See {IERC20-approve}. NOTE: If `amount` is the maximum `uint256`, the allowance is not updated on `transferFrom`. This is semantically equivalent to an infinite approval. Requirements: - `spender` cannot be the zero address."
      },
      "balanceOf(address)": {
        "details": "See {IERC20-balanceOf}."
      },
      "decimals()": {
        "details": "Returns the number of decimals used to get its user representation. For example, if `decimals` equals `2`, a balance of `505` tokens should be displayed to a user as `5.05` (`505 / 10 ** 2`). Tokens usually opt for a value of 18, imitating the relationship between Ether and Wei. This is the default value returned by this function, unless it's overridden. NOTE: This information is only used for _display_ purposes: it in no way affects any of the arithmetic of the contract, including {IERC20-balanceOf} and {IERC20-transfer}."
      },
      "decreaseAllowance(address,uint256)": {
        "details": "Atomically decreases the allowance granted to `spender` by the caller. This is an alternative to {approve} that can be used as a mitigation for problems described in {IERC20-approve}. Emits an {Approval} event indicating the updated allowance. Requirements: - `spender` cannot be the zero address. - `spender` must have allowance for the caller of at least `subtractedValue`."
      },
      "increaseAllowance(address,uint256)": {
        "details": "Atomically increases the allowance granted to `spender` by the caller. This is an alternative to {approve} that can be used as a mitigation for problems described in {IERC20-approve}. Emits an {Approval} event indicating the updated allowance. Requirements: - `spender` cannot be the zero address."
      },
      "name()": {
        "details": "Returns the name of the token."
      },
      "owner()": {
        "details": "Returns the address of the current owner."
      },
      "renounceOwnership()": {
        "details": "Leaves the contract without owner. It will not be possible to call `onlyOwner` functions. Can only be called by the current owner. NOTE: Renouncing ownership will leave the contract without an owner, thereby disabling any functionality that is only available to the owner."
      },
      "symbol()": {
        "details": "Returns the symbol of the token, usually a shorter version of the name."
      },
      "totalSupply()": {
        "details": "See {IERC20-totalSupply}."
      },
      "transfer(address,uint256)": {
        "details": "See {IERC20-transfer}. Requirements: - `to` cannot be the zero address. - the caller must have a balance of at least `amount`."
      },
      "transferFrom(address,address,uint256)": {
        "details": "See {IERC20-transferFrom}. Emits an {Approval} event indicating the updated allowance. This is not required by the EIP. See the note at the beginning of {ERC20}. NOTE: Does not update the allowance if the current allowance is the maximum `uint256`. Requirements: - `from` and `to` cannot be the zero address. - `from` must have a balance of at least `amount`. - the caller must have allowance for ``from``'s tokens of at least `amount`."
      },
      "transferOwnership(address)": {
        "details": "Transfers ownership of the contract to a new account (`newOwner`). Can only be called by the current owner."
      }
    },
    "title": "SecureStablecoin",
    "version": 1
  },
  "userdoc": {
    "kind": "user",
    "methods": {},
    "version": 1
  }
}